{
	"data": {
		"bytecode": {
			"linkReferences": {},
			"object": "608060405234801561001057600080fd5b5073a0b86991c6218b36c1d19d4a2e9eb0ce3606eb486000806101000a81548173ffffffffffffffffffffffffffffffffffffffff021916908373ffffffffffffffffffffffffffffffffffffffff16021790555060646003819055506103e86004819055506102bc6006819055506101f4600781905550610ee2806100976000396000f3fe608060405234801561001057600080fd5b506004361061010b5760003560e01c806389a30271116100a2578063bb1631cf11610071578063bb1631cf1461024c578063c34482a61461026a578063d0e30db014610286578063f5c8f89a146102a4578063f855c2b2146102c25761010b565b806389a30271146101d65780638f76691a146101f4578063a52b311314610212578063b4d200821461022e5761010b565b80632c4e722e116100de5780632c4e722e1461016057806342cde4e81461017e5780635ac7efa91461019c57806372be1c17146101b85761010b565b80630edd2ffc146101105780630fb5a6b41461012e57806311da60b41461014c57806328a0702514610156575b600080fd5b6101186102e0565b6040516101259190610bb1565b60405180910390f35b6101366102e6565b6040516101439190610bb1565b60405180910390f35b6101546102ec565b005b61015e610452565b005b61016861059a565b6040516101759190610bb1565b60405180910390f35b6101866105a0565b6040516101939190610bb1565b60405180910390f35b6101b660048036038101906101b19190610988565b6105a6565b005b6101c06105f5565b6040516101cd9190610adf565b60405180910390f35b6101de61061b565b6040516101eb9190610adf565b60405180910390f35b6101fc61063f565b6040516102099190610bb1565b60405180910390f35b61022c600480360381019061022791906109f5565b610645565b005b61023661066d565b6040516102439190610bb1565b60405180910390f35b610254610673565b6040516102619190610adf565b60405180910390f35b610284600480360381019061027f9190610988565b610699565b005b61028e6106e8565b60405161029b9190610bb1565b60405180910390f35b6102ac6106ee565b6040516102b99190610bb1565b60405180910390f35b6102ca6106f4565b6040516102d79190610bb1565b60405180910390f35b60075481565b60095481565b60006102f66106fa565b905060006009548260055461030b9190610c64565b6103159190610c64565b600354836005546103269190610c64565b6103309190610c33565b60055461033d9190610bdd565b6103479190610cbe565b905060006003548360055461035c9190610c64565b6103669190610c33565b600954846005546103779190610c64565b6103819190610c64565b60055461038e9190610bdd565b6103989190610cbe565b905060055460026103a99190610c64565b82826103b59190610bdd565b146103f5576040517f08c379a00000000000000000000000000000000000000000000000000000000081526004016103ec90610b31565b60405180910390fd5b610421600260009054906101000a900473ffffffffffffffffffffffffffffffffffffffff1683610710565b61044d600160009054906101000a900473ffffffffffffffffffffffffffffffffffffffff1682610710565b505050565b600061045c6106fa565b905060006006546004546104709190610cbe565b90506000600754826008546104859190610c64565b6005546104929190610bdd565b61049c9190610bdd565b905060055460026104ad9190610c64565b81106104ee576040517f08c379a00000000000000000000000000000000000000000000000000000000081526004016104e590610b91565b60405180910390fd5b81600354846104fd9190610cbe565b11156105435780600b819055506000600a8190555061053e600260009054906101000a900473ffffffffffffffffffffffffffffffffffffffff1682610710565b610595565b81836003546105529190610cbe565b10156105945780600a819055506000600b81905550610593600160009054906101000a900473ffffffffffffffffffffffffffffffffffffffff1682610710565b5b5b505050565b60035481565b60065481565b6105b082826107c4565b33600260006101000a81548173ffffffffffffffffffffffffffffffffffffffff021916908373ffffffffffffffffffffffffffffffffffffffff1602179055505050565b600260009054906101000a900473ffffffffffffffffffffffffffffffffffffffff1681565b60008054906101000a900473ffffffffffffffffffffffffffffffffffffffff1681565b60045481565b81600881905550806009819055506004546008546106639190610c64565b6005819055505050565b600b5481565b600160009054906101000a900473ffffffffffffffffffffffffffffffffffffffff1681565b6106a382826107c4565b33600160006101000a81548173ffffffffffffffffffffffffffffffffffffffff021916908373ffffffffffffffffffffffffffffffffffffffff1602179055505050565b60055481565b600a5481565b60085481565b6000600260035461070b9190610c64565b905090565b60008054906101000a900473ffffffffffffffffffffffffffffffffffffffff1673ffffffffffffffffffffffffffffffffffffffff166323b872dd3084846040518463ffffffff1660e01b815260040161076d93929190610afa565b602060405180830381600087803b15801561078757600080fd5b505af115801561079b573d6000803e3d6000fd5b505050506040513d601f19601f820116820180604052508101906107bf91906109c8565b505050565b60008111610807576040517f08c379a00000000000000000000000000000000000000000000000000000000081526004016107fe90610b51565b60405180910390fd5b60008054906101000a900473ffffffffffffffffffffffffffffffffffffffff1673ffffffffffffffffffffffffffffffffffffffff168273ffffffffffffffffffffffffffffffffffffffff1614610895576040517f08c379a000000000000000000000000000000000000000000000000000000000815260040161088c90610b71565b60405180910390fd5b60008054906101000a900473ffffffffffffffffffffffffffffffffffffffff1673ffffffffffffffffffffffffffffffffffffffff166323b872dd3330846040518463ffffffff1660e01b81526004016108f293929190610afa565b602060405180830381600087803b15801561090c57600080fd5b505af1158015610920573d6000803e3d6000fd5b505050506040513d601f19601f8201168201806040525081019061094491906109c8565b505050565b60008135905061095881610e67565b92915050565b60008151905061096d81610e7e565b92915050565b60008135905061098281610e95565b92915050565b6000806040838503121561099f5761099e610d98565b5b60006109ad85828601610949565b92505060206109be85828601610973565b9150509250929050565b6000602082840312156109de576109dd610d98565b5b60006109ec8482850161095e565b91505092915050565b60008060408385031215610a0c57610a0b610d98565b5b6000610a1a85828601610973565b9250506020610a2b85828601610973565b9150509250929050565b610a3e81610cf2565b82525050565b6000610a51602983610bcc565b9150610a5c82610d9d565b604082019050919050565b6000610a74600e83610bcc565b9150610a7f82610dec565b602082019050919050565b6000610a97601183610bcc565b9150610aa282610e15565b602082019050919050565b6000610aba602083610bcc565b9150610ac582610e3e565b602082019050919050565b610ad981610d30565b82525050565b6000602082019050610af46000830184610a35565b92915050565b6000606082019050610b0f6000830186610a35565b610b1c6020830185610a35565b610b296040830184610ad0565b949350505050565b60006020820190508181036000830152610b4a81610a44565b9050919050565b60006020820190508181036000830152610b6a81610a67565b9050919050565b60006020820190508181036000830152610b8a81610a8a565b9050919050565b60006020820190508181036000830152610baa81610aad565b9050919050565b6000602082019050610bc66000830184610ad0565b92915050565b600082825260208201905092915050565b6000610be882610d30565b9150610bf383610d30565b9250827fffffffffffffffffffffffffffffffffffffffffffffffffffffffffffffffff03821115610c2857610c27610d3a565b5b828201905092915050565b6000610c3e82610d30565b9150610c4983610d30565b925082610c5957610c58610d69565b5b828204905092915050565b6000610c6f82610d30565b9150610c7a83610d30565b9250817fffffffffffffffffffffffffffffffffffffffffffffffffffffffffffffffff0483118215151615610cb357610cb2610d3a565b5b828202905092915050565b6000610cc982610d30565b9150610cd483610d30565b925082821015610ce757610ce6610d3a565b5b828203905092915050565b6000610cfd82610d10565b9050919050565b60008115159050919050565b600073ffffffffffffffffffffffffffffffffffffffff82169050919050565b6000819050919050565b7f4e487b7100000000000000000000000000000000000000000000000000000000600052601160045260246000fd5b7f4e487b7100000000000000000000000000000000000000000000000000000000600052601260045260246000fd5b600080fd5b7f546f74616c207061796f7574732073686f756c6420657175616c20746f74616c60008201527f206465706f736974730000000000000000000000000000000000000000000000602082015250565b7f43616e6e6f74207374616b652030000000000000000000000000000000000000600082015250565b7f556e737570706f7274656420746f6b656e000000000000000000000000000000600082015250565b7f43616e6e6f74207061796f7574206d6f7265207468616e206465706f73697473600082015250565b610e7081610cf2565b8114610e7b57600080fd5b50565b610e8781610d04565b8114610e9257600080fd5b50565b610e9e81610d30565b8114610ea957600080fd5b5056fea2646970667358221220a2d7571b6ee7d6326957a1b74a059d50c34d2586bf8336732f969f82d6c8c36264736f6c63430008070033",
			"opcodes": "PUSH1 0x80 PUSH1 0x40 MSTORE CALLVALUE DUP1 ISZERO PUSH2 0x10 JUMPI PUSH1 0x0 DUP1 REVERT JUMPDEST POP PUSH20 0xA0B86991C6218B36C1D19D4A2E9EB0CE3606EB48 PUSH1 0x0 DUP1 PUSH2 0x100 EXP DUP2 SLOAD DUP2 PUSH20 0xFFFFFFFFFFFFFFFFFFFFFFFFFFFFFFFFFFFFFFFF MUL NOT AND SWAP1 DUP4 PUSH20 0xFFFFFFFFFFFFFFFFFFFFFFFFFFFFFFFFFFFFFFFF AND MUL OR SWAP1 SSTORE POP PUSH1 0x64 PUSH1 0x3 DUP2 SWAP1 SSTORE POP PUSH2 0x3E8 PUSH1 0x4 DUP2 SWAP1 SSTORE POP PUSH2 0x2BC PUSH1 0x6 DUP2 SWAP1 SSTORE POP PUSH2 0x1F4 PUSH1 0x7 DUP2 SWAP1 SSTORE POP PUSH2 0xEE2 DUP1 PUSH2 0x97 PUSH1 0x0 CODECOPY PUSH1 0x0 RETURN INVALID PUSH1 0x80 PUSH1 0x40 MSTORE CALLVALUE DUP1 ISZERO PUSH2 0x10 JUMPI PUSH1 0x0 DUP1 REVERT JUMPDEST POP PUSH1 0x4 CALLDATASIZE LT PUSH2 0x10B JUMPI PUSH1 0x0 CALLDATALOAD PUSH1 0xE0 SHR DUP1 PUSH4 0x89A30271 GT PUSH2 0xA2 JUMPI DUP1 PUSH4 0xBB1631CF GT PUSH2 0x71 JUMPI DUP1 PUSH4 0xBB1631CF EQ PUSH2 0x24C JUMPI DUP1 PUSH4 0xC34482A6 EQ PUSH2 0x26A JUMPI DUP1 PUSH4 0xD0E30DB0 EQ PUSH2 0x286 JUMPI DUP1 PUSH4 0xF5C8F89A EQ PUSH2 0x2A4 JUMPI DUP1 PUSH4 0xF855C2B2 EQ PUSH2 0x2C2 JUMPI PUSH2 0x10B JUMP JUMPDEST DUP1 PUSH4 0x89A30271 EQ PUSH2 0x1D6 JUMPI DUP1 PUSH4 0x8F76691A EQ PUSH2 0x1F4 JUMPI DUP1 PUSH4 0xA52B3113 EQ PUSH2 0x212 JUMPI DUP1 PUSH4 0xB4D20082 EQ PUSH2 0x22E JUMPI PUSH2 0x10B JUMP JUMPDEST DUP1 PUSH4 0x2C4E722E GT PUSH2 0xDE JUMPI DUP1 PUSH4 0x2C4E722E EQ PUSH2 0x160 JUMPI DUP1 PUSH4 0x42CDE4E8 EQ PUSH2 0x17E JUMPI DUP1 PUSH4 0x5AC7EFA9 EQ PUSH2 0x19C JUMPI DUP1 PUSH4 0x72BE1C17 EQ PUSH2 0x1B8 JUMPI PUSH2 0x10B JUMP JUMPDEST DUP1 PUSH4 0xEDD2FFC EQ PUSH2 0x110 JUMPI DUP1 PUSH4 0xFB5A6B4 EQ PUSH2 0x12E JUMPI DUP1 PUSH4 0x11DA60B4 EQ PUSH2 0x14C JUMPI DUP1 PUSH4 0x28A07025 EQ PUSH2 0x156 JUMPI JUMPDEST PUSH1 0x0 DUP1 REVERT JUMPDEST PUSH2 0x118 PUSH2 0x2E0 JUMP JUMPDEST PUSH1 0x40 MLOAD PUSH2 0x125 SWAP2 SWAP1 PUSH2 0xBB1 JUMP JUMPDEST PUSH1 0x40 MLOAD DUP1 SWAP2 SUB SWAP1 RETURN JUMPDEST PUSH2 0x136 PUSH2 0x2E6 JUMP JUMPDEST PUSH1 0x40 MLOAD PUSH2 0x143 SWAP2 SWAP1 PUSH2 0xBB1 JUMP JUMPDEST PUSH1 0x40 MLOAD DUP1 SWAP2 SUB SWAP1 RETURN JUMPDEST PUSH2 0x154 PUSH2 0x2EC JUMP JUMPDEST STOP JUMPDEST PUSH2 0x15E PUSH2 0x452 JUMP JUMPDEST STOP JUMPDEST PUSH2 0x168 PUSH2 0x59A JUMP JUMPDEST PUSH1 0x40 MLOAD PUSH2 0x175 SWAP2 SWAP1 PUSH2 0xBB1 JUMP JUMPDEST PUSH1 0x40 MLOAD DUP1 SWAP2 SUB SWAP1 RETURN JUMPDEST PUSH2 0x186 PUSH2 0x5A0 JUMP JUMPDEST PUSH1 0x40 MLOAD PUSH2 0x193 SWAP2 SWAP1 PUSH2 0xBB1 JUMP JUMPDEST PUSH1 0x40 MLOAD DUP1 SWAP2 SUB SWAP1 RETURN JUMPDEST PUSH2 0x1B6 PUSH1 0x4 DUP1 CALLDATASIZE SUB DUP2 ADD SWAP1 PUSH2 0x1B1 SWAP2 SWAP1 PUSH2 0x988 JUMP JUMPDEST PUSH2 0x5A6 JUMP JUMPDEST STOP JUMPDEST PUSH2 0x1C0 PUSH2 0x5F5 JUMP JUMPDEST PUSH1 0x40 MLOAD PUSH2 0x1CD SWAP2 SWAP1 PUSH2 0xADF JUMP JUMPDEST PUSH1 0x40 MLOAD DUP1 SWAP2 SUB SWAP1 RETURN JUMPDEST PUSH2 0x1DE PUSH2 0x61B JUMP JUMPDEST PUSH1 0x40 MLOAD PUSH2 0x1EB SWAP2 SWAP1 PUSH2 0xADF JUMP JUMPDEST PUSH1 0x40 MLOAD DUP1 SWAP2 SUB SWAP1 RETURN JUMPDEST PUSH2 0x1FC PUSH2 0x63F JUMP JUMPDEST PUSH1 0x40 MLOAD PUSH2 0x209 SWAP2 SWAP1 PUSH2 0xBB1 JUMP JUMPDEST PUSH1 0x40 MLOAD DUP1 SWAP2 SUB SWAP1 RETURN JUMPDEST PUSH2 0x22C PUSH1 0x4 DUP1 CALLDATASIZE SUB DUP2 ADD SWAP1 PUSH2 0x227 SWAP2 SWAP1 PUSH2 0x9F5 JUMP JUMPDEST PUSH2 0x645 JUMP JUMPDEST STOP JUMPDEST PUSH2 0x236 PUSH2 0x66D JUMP JUMPDEST PUSH1 0x40 MLOAD PUSH2 0x243 SWAP2 SWAP1 PUSH2 0xBB1 JUMP JUMPDEST PUSH1 0x40 MLOAD DUP1 SWAP2 SUB SWAP1 RETURN JUMPDEST PUSH2 0x254 PUSH2 0x673 JUMP JUMPDEST PUSH1 0x40 MLOAD PUSH2 0x261 SWAP2 SWAP1 PUSH2 0xADF JUMP JUMPDEST PUSH1 0x40 MLOAD DUP1 SWAP2 SUB SWAP1 RETURN JUMPDEST PUSH2 0x284 PUSH1 0x4 DUP1 CALLDATASIZE SUB DUP2 ADD SWAP1 PUSH2 0x27F SWAP2 SWAP1 PUSH2 0x988 JUMP JUMPDEST PUSH2 0x699 JUMP JUMPDEST STOP JUMPDEST PUSH2 0x28E PUSH2 0x6E8 JUMP JUMPDEST PUSH1 0x40 MLOAD PUSH2 0x29B SWAP2 SWAP1 PUSH2 0xBB1 JUMP JUMPDEST PUSH1 0x40 MLOAD DUP1 SWAP2 SUB SWAP1 RETURN JUMPDEST PUSH2 0x2AC PUSH2 0x6EE JUMP JUMPDEST PUSH1 0x40 MLOAD PUSH2 0x2B9 SWAP2 SWAP1 PUSH2 0xBB1 JUMP JUMPDEST PUSH1 0x40 MLOAD DUP1 SWAP2 SUB SWAP1 RETURN JUMPDEST PUSH2 0x2CA PUSH2 0x6F4 JUMP JUMPDEST PUSH1 0x40 MLOAD PUSH2 0x2D7 SWAP2 SWAP1 PUSH2 0xBB1 JUMP JUMPDEST PUSH1 0x40 MLOAD DUP1 SWAP2 SUB SWAP1 RETURN JUMPDEST PUSH1 0x7 SLOAD DUP2 JUMP JUMPDEST PUSH1 0x9 SLOAD DUP2 JUMP JUMPDEST PUSH1 0x0 PUSH2 0x2F6 PUSH2 0x6FA JUMP JUMPDEST SWAP1 POP PUSH1 0x0 PUSH1 0x9 SLOAD DUP3 PUSH1 0x5 SLOAD PUSH2 0x30B SWAP2 SWAP1 PUSH2 0xC64 JUMP JUMPDEST PUSH2 0x315 SWAP2 SWAP1 PUSH2 0xC64 JUMP JUMPDEST PUSH1 0x3 SLOAD DUP4 PUSH1 0x5 SLOAD PUSH2 0x326 SWAP2 SWAP1 PUSH2 0xC64 JUMP JUMPDEST PUSH2 0x330 SWAP2 SWAP1 PUSH2 0xC33 JUMP JUMPDEST PUSH1 0x5 SLOAD PUSH2 0x33D SWAP2 SWAP1 PUSH2 0xBDD JUMP JUMPDEST PUSH2 0x347 SWAP2 SWAP1 PUSH2 0xCBE JUMP JUMPDEST SWAP1 POP PUSH1 0x0 PUSH1 0x3 SLOAD DUP4 PUSH1 0x5 SLOAD PUSH2 0x35C SWAP2 SWAP1 PUSH2 0xC64 JUMP JUMPDEST PUSH2 0x366 SWAP2 SWAP1 PUSH2 0xC33 JUMP JUMPDEST PUSH1 0x9 SLOAD DUP5 PUSH1 0x5 SLOAD PUSH2 0x377 SWAP2 SWAP1 PUSH2 0xC64 JUMP JUMPDEST PUSH2 0x381 SWAP2 SWAP1 PUSH2 0xC64 JUMP JUMPDEST PUSH1 0x5 SLOAD PUSH2 0x38E SWAP2 SWAP1 PUSH2 0xBDD JUMP JUMPDEST PUSH2 0x398 SWAP2 SWAP1 PUSH2 0xCBE JUMP JUMPDEST SWAP1 POP PUSH1 0x5 SLOAD PUSH1 0x2 PUSH2 0x3A9 SWAP2 SWAP1 PUSH2 0xC64 JUMP JUMPDEST DUP3 DUP3 PUSH2 0x3B5 SWAP2 SWAP1 PUSH2 0xBDD JUMP JUMPDEST EQ PUSH2 0x3F5 JUMPI PUSH1 0x40 MLOAD PUSH32 0x8C379A000000000000000000000000000000000000000000000000000000000 DUP2 MSTORE PUSH1 0x4 ADD PUSH2 0x3EC SWAP1 PUSH2 0xB31 JUMP JUMPDEST PUSH1 0x40 MLOAD DUP1 SWAP2 SUB SWAP1 REVERT JUMPDEST PUSH2 0x421 PUSH1 0x2 PUSH1 0x0 SWAP1 SLOAD SWAP1 PUSH2 0x100 EXP SWAP1 DIV PUSH20 0xFFFFFFFFFFFFFFFFFFFFFFFFFFFFFFFFFFFFFFFF AND DUP4 PUSH2 0x710 JUMP JUMPDEST PUSH2 0x44D PUSH1 0x1 PUSH1 0x0 SWAP1 SLOAD SWAP1 PUSH2 0x100 EXP SWAP1 DIV PUSH20 0xFFFFFFFFFFFFFFFFFFFFFFFFFFFFFFFFFFFFFFFF AND DUP3 PUSH2 0x710 JUMP JUMPDEST POP POP POP JUMP JUMPDEST PUSH1 0x0 PUSH2 0x45C PUSH2 0x6FA JUMP JUMPDEST SWAP1 POP PUSH1 0x0 PUSH1 0x6 SLOAD PUSH1 0x4 SLOAD PUSH2 0x470 SWAP2 SWAP1 PUSH2 0xCBE JUMP JUMPDEST SWAP1 POP PUSH1 0x0 PUSH1 0x7 SLOAD DUP3 PUSH1 0x8 SLOAD PUSH2 0x485 SWAP2 SWAP1 PUSH2 0xC64 JUMP JUMPDEST PUSH1 0x5 SLOAD PUSH2 0x492 SWAP2 SWAP1 PUSH2 0xBDD JUMP JUMPDEST PUSH2 0x49C SWAP2 SWAP1 PUSH2 0xBDD JUMP JUMPDEST SWAP1 POP PUSH1 0x5 SLOAD PUSH1 0x2 PUSH2 0x4AD SWAP2 SWAP1 PUSH2 0xC64 JUMP JUMPDEST DUP2 LT PUSH2 0x4EE JUMPI PUSH1 0x40 MLOAD PUSH32 0x8C379A000000000000000000000000000000000000000000000000000000000 DUP2 MSTORE PUSH1 0x4 ADD PUSH2 0x4E5 SWAP1 PUSH2 0xB91 JUMP JUMPDEST PUSH1 0x40 MLOAD DUP1 SWAP2 SUB SWAP1 REVERT JUMPDEST DUP2 PUSH1 0x3 SLOAD DUP5 PUSH2 0x4FD SWAP2 SWAP1 PUSH2 0xCBE JUMP JUMPDEST GT ISZERO PUSH2 0x543 JUMPI DUP1 PUSH1 0xB DUP2 SWAP1 SSTORE POP PUSH1 0x0 PUSH1 0xA DUP2 SWAP1 SSTORE POP PUSH2 0x53E PUSH1 0x2 PUSH1 0x0 SWAP1 SLOAD SWAP1 PUSH2 0x100 EXP SWAP1 DIV PUSH20 0xFFFFFFFFFFFFFFFFFFFFFFFFFFFFFFFFFFFFFFFF AND DUP3 PUSH2 0x710 JUMP JUMPDEST PUSH2 0x595 JUMP JUMPDEST DUP2 DUP4 PUSH1 0x3 SLOAD PUSH2 0x552 SWAP2 SWAP1 PUSH2 0xCBE JUMP JUMPDEST LT ISZERO PUSH2 0x594 JUMPI DUP1 PUSH1 0xA DUP2 SWAP1 SSTORE POP PUSH1 0x0 PUSH1 0xB DUP2 SWAP1 SSTORE POP PUSH2 0x593 PUSH1 0x1 PUSH1 0x0 SWAP1 SLOAD SWAP1 PUSH2 0x100 EXP SWAP1 DIV PUSH20 0xFFFFFFFFFFFFFFFFFFFFFFFFFFFFFFFFFFFFFFFF AND DUP3 PUSH2 0x710 JUMP JUMPDEST JUMPDEST JUMPDEST POP POP POP JUMP JUMPDEST PUSH1 0x3 SLOAD DUP2 JUMP JUMPDEST PUSH1 0x6 SLOAD DUP2 JUMP JUMPDEST PUSH2 0x5B0 DUP3 DUP3 PUSH2 0x7C4 JUMP JUMPDEST CALLER PUSH1 0x2 PUSH1 0x0 PUSH2 0x100 EXP DUP2 SLOAD DUP2 PUSH20 0xFFFFFFFFFFFFFFFFFFFFFFFFFFFFFFFFFFFFFFFF MUL NOT AND SWAP1 DUP4 PUSH20 0xFFFFFFFFFFFFFFFFFFFFFFFFFFFFFFFFFFFFFFFF AND MUL OR SWAP1 SSTORE POP POP POP JUMP JUMPDEST PUSH1 0x2 PUSH1 0x0 SWAP1 SLOAD SWAP1 PUSH2 0x100 EXP SWAP1 DIV PUSH20 0xFFFFFFFFFFFFFFFFFFFFFFFFFFFFFFFFFFFFFFFF AND DUP2 JUMP JUMPDEST PUSH1 0x0 DUP1 SLOAD SWAP1 PUSH2 0x100 EXP SWAP1 DIV PUSH20 0xFFFFFFFFFFFFFFFFFFFFFFFFFFFFFFFFFFFFFFFF AND DUP2 JUMP JUMPDEST PUSH1 0x4 SLOAD DUP2 JUMP JUMPDEST DUP2 PUSH1 0x8 DUP2 SWAP1 SSTORE POP DUP1 PUSH1 0x9 DUP2 SWAP1 SSTORE POP PUSH1 0x4 SLOAD PUSH1 0x8 SLOAD PUSH2 0x663 SWAP2 SWAP1 PUSH2 0xC64 JUMP JUMPDEST PUSH1 0x5 DUP2 SWAP1 SSTORE POP POP POP JUMP JUMPDEST PUSH1 0xB SLOAD DUP2 JUMP JUMPDEST PUSH1 0x1 PUSH1 0x0 SWAP1 SLOAD SWAP1 PUSH2 0x100 EXP SWAP1 DIV PUSH20 0xFFFFFFFFFFFFFFFFFFFFFFFFFFFFFFFFFFFFFFFF AND DUP2 JUMP JUMPDEST PUSH2 0x6A3 DUP3 DUP3 PUSH2 0x7C4 JUMP JUMPDEST CALLER PUSH1 0x1 PUSH1 0x0 PUSH2 0x100 EXP DUP2 SLOAD DUP2 PUSH20 0xFFFFFFFFFFFFFFFFFFFFFFFFFFFFFFFFFFFFFFFF MUL NOT AND SWAP1 DUP4 PUSH20 0xFFFFFFFFFFFFFFFFFFFFFFFFFFFFFFFFFFFFFFFF AND MUL OR SWAP1 SSTORE POP POP POP JUMP JUMPDEST PUSH1 0x5 SLOAD DUP2 JUMP JUMPDEST PUSH1 0xA SLOAD DUP2 JUMP JUMPDEST PUSH1 0x8 SLOAD DUP2 JUMP JUMPDEST PUSH1 0x0 PUSH1 0x2 PUSH1 0x3 SLOAD PUSH2 0x70B SWAP2 SWAP1 PUSH2 0xC64 JUMP JUMPDEST SWAP1 POP SWAP1 JUMP JUMPDEST PUSH1 0x0 DUP1 SLOAD SWAP1 PUSH2 0x100 EXP SWAP1 DIV PUSH20 0xFFFFFFFFFFFFFFFFFFFFFFFFFFFFFFFFFFFFFFFF AND PUSH20 0xFFFFFFFFFFFFFFFFFFFFFFFFFFFFFFFFFFFFFFFF AND PUSH4 0x23B872DD ADDRESS DUP5 DUP5 PUSH1 0x40 MLOAD DUP5 PUSH4 0xFFFFFFFF AND PUSH1 0xE0 SHL DUP2 MSTORE PUSH1 0x4 ADD PUSH2 0x76D SWAP4 SWAP3 SWAP2 SWAP1 PUSH2 0xAFA JUMP JUMPDEST PUSH1 0x20 PUSH1 0x40 MLOAD DUP1 DUP4 SUB DUP2 PUSH1 0x0 DUP8 DUP1 EXTCODESIZE ISZERO DUP1 ISZERO PUSH2 0x787 JUMPI PUSH1 0x0 DUP1 REVERT JUMPDEST POP GAS CALL ISZERO DUP1 ISZERO PUSH2 0x79B JUMPI RETURNDATASIZE PUSH1 0x0 DUP1 RETURNDATACOPY RETURNDATASIZE PUSH1 0x0 REVERT JUMPDEST POP POP POP POP PUSH1 0x40 MLOAD RETURNDATASIZE PUSH1 0x1F NOT PUSH1 0x1F DUP3 ADD AND DUP3 ADD DUP1 PUSH1 0x40 MSTORE POP DUP2 ADD SWAP1 PUSH2 0x7BF SWAP2 SWAP1 PUSH2 0x9C8 JUMP JUMPDEST POP POP POP JUMP JUMPDEST PUSH1 0x0 DUP2 GT PUSH2 0x807 JUMPI PUSH1 0x40 MLOAD PUSH32 0x8C379A000000000000000000000000000000000000000000000000000000000 DUP2 MSTORE PUSH1 0x4 ADD PUSH2 0x7FE SWAP1 PUSH2 0xB51 JUMP JUMPDEST PUSH1 0x40 MLOAD DUP1 SWAP2 SUB SWAP1 REVERT JUMPDEST PUSH1 0x0 DUP1 SLOAD SWAP1 PUSH2 0x100 EXP SWAP1 DIV PUSH20 0xFFFFFFFFFFFFFFFFFFFFFFFFFFFFFFFFFFFFFFFF AND PUSH20 0xFFFFFFFFFFFFFFFFFFFFFFFFFFFFFFFFFFFFFFFF AND DUP3 PUSH20 0xFFFFFFFFFFFFFFFFFFFFFFFFFFFFFFFFFFFFFFFF AND EQ PUSH2 0x895 JUMPI PUSH1 0x40 MLOAD PUSH32 0x8C379A000000000000000000000000000000000000000000000000000000000 DUP2 MSTORE PUSH1 0x4 ADD PUSH2 0x88C SWAP1 PUSH2 0xB71 JUMP JUMPDEST PUSH1 0x40 MLOAD DUP1 SWAP2 SUB SWAP1 REVERT JUMPDEST PUSH1 0x0 DUP1 SLOAD SWAP1 PUSH2 0x100 EXP SWAP1 DIV PUSH20 0xFFFFFFFFFFFFFFFFFFFFFFFFFFFFFFFFFFFFFFFF AND PUSH20 0xFFFFFFFFFFFFFFFFFFFFFFFFFFFFFFFFFFFFFFFF AND PUSH4 0x23B872DD CALLER ADDRESS DUP5 PUSH1 0x40 MLOAD DUP5 PUSH4 0xFFFFFFFF AND PUSH1 0xE0 SHL DUP2 MSTORE PUSH1 0x4 ADD PUSH2 0x8F2 SWAP4 SWAP3 SWAP2 SWAP1 PUSH2 0xAFA JUMP JUMPDEST PUSH1 0x20 PUSH1 0x40 MLOAD DUP1 DUP4 SUB DUP2 PUSH1 0x0 DUP8 DUP1 EXTCODESIZE ISZERO DUP1 ISZERO PUSH2 0x90C JUMPI PUSH1 0x0 DUP1 REVERT JUMPDEST POP GAS CALL ISZERO DUP1 ISZERO PUSH2 0x920 JUMPI RETURNDATASIZE PUSH1 0x0 DUP1 RETURNDATACOPY RETURNDATASIZE PUSH1 0x0 REVERT JUMPDEST POP POP POP POP PUSH1 0x40 MLOAD RETURNDATASIZE PUSH1 0x1F NOT PUSH1 0x1F DUP3 ADD AND DUP3 ADD DUP1 PUSH1 0x40 MSTORE POP DUP2 ADD SWAP1 PUSH2 0x944 SWAP2 SWAP1 PUSH2 0x9C8 JUMP JUMPDEST POP POP POP JUMP JUMPDEST PUSH1 0x0 DUP2 CALLDATALOAD SWAP1 POP PUSH2 0x958 DUP2 PUSH2 0xE67 JUMP JUMPDEST SWAP3 SWAP2 POP POP JUMP JUMPDEST PUSH1 0x0 DUP2 MLOAD SWAP1 POP PUSH2 0x96D DUP2 PUSH2 0xE7E JUMP JUMPDEST SWAP3 SWAP2 POP POP JUMP JUMPDEST PUSH1 0x0 DUP2 CALLDATALOAD SWAP1 POP PUSH2 0x982 DUP2 PUSH2 0xE95 JUMP JUMPDEST SWAP3 SWAP2 POP POP JUMP JUMPDEST PUSH1 0x0 DUP1 PUSH1 0x40 DUP4 DUP6 SUB SLT ISZERO PUSH2 0x99F JUMPI PUSH2 0x99E PUSH2 0xD98 JUMP JUMPDEST JUMPDEST PUSH1 0x0 PUSH2 0x9AD DUP6 DUP3 DUP7 ADD PUSH2 0x949 JUMP JUMPDEST SWAP3 POP POP PUSH1 0x20 PUSH2 0x9BE DUP6 DUP3 DUP7 ADD PUSH2 0x973 JUMP JUMPDEST SWAP2 POP POP SWAP3 POP SWAP3 SWAP1 POP JUMP JUMPDEST PUSH1 0x0 PUSH1 0x20 DUP3 DUP5 SUB SLT ISZERO PUSH2 0x9DE JUMPI PUSH2 0x9DD PUSH2 0xD98 JUMP JUMPDEST JUMPDEST PUSH1 0x0 PUSH2 0x9EC DUP5 DUP3 DUP6 ADD PUSH2 0x95E JUMP JUMPDEST SWAP2 POP POP SWAP3 SWAP2 POP POP JUMP JUMPDEST PUSH1 0x0 DUP1 PUSH1 0x40 DUP4 DUP6 SUB SLT ISZERO PUSH2 0xA0C JUMPI PUSH2 0xA0B PUSH2 0xD98 JUMP JUMPDEST JUMPDEST PUSH1 0x0 PUSH2 0xA1A DUP6 DUP3 DUP7 ADD PUSH2 0x973 JUMP JUMPDEST SWAP3 POP POP PUSH1 0x20 PUSH2 0xA2B DUP6 DUP3 DUP7 ADD PUSH2 0x973 JUMP JUMPDEST SWAP2 POP POP SWAP3 POP SWAP3 SWAP1 POP JUMP JUMPDEST PUSH2 0xA3E DUP2 PUSH2 0xCF2 JUMP JUMPDEST DUP3 MSTORE POP POP JUMP JUMPDEST PUSH1 0x0 PUSH2 0xA51 PUSH1 0x29 DUP4 PUSH2 0xBCC JUMP JUMPDEST SWAP2 POP PUSH2 0xA5C DUP3 PUSH2 0xD9D JUMP JUMPDEST PUSH1 0x40 DUP3 ADD SWAP1 POP SWAP2 SWAP1 POP JUMP JUMPDEST PUSH1 0x0 PUSH2 0xA74 PUSH1 0xE DUP4 PUSH2 0xBCC JUMP JUMPDEST SWAP2 POP PUSH2 0xA7F DUP3 PUSH2 0xDEC JUMP JUMPDEST PUSH1 0x20 DUP3 ADD SWAP1 POP SWAP2 SWAP1 POP JUMP JUMPDEST PUSH1 0x0 PUSH2 0xA97 PUSH1 0x11 DUP4 PUSH2 0xBCC JUMP JUMPDEST SWAP2 POP PUSH2 0xAA2 DUP3 PUSH2 0xE15 JUMP JUMPDEST PUSH1 0x20 DUP3 ADD SWAP1 POP SWAP2 SWAP1 POP JUMP JUMPDEST PUSH1 0x0 PUSH2 0xABA PUSH1 0x20 DUP4 PUSH2 0xBCC JUMP JUMPDEST SWAP2 POP PUSH2 0xAC5 DUP3 PUSH2 0xE3E JUMP JUMPDEST PUSH1 0x20 DUP3 ADD SWAP1 POP SWAP2 SWAP1 POP JUMP JUMPDEST PUSH2 0xAD9 DUP2 PUSH2 0xD30 JUMP JUMPDEST DUP3 MSTORE POP POP JUMP JUMPDEST PUSH1 0x0 PUSH1 0x20 DUP3 ADD SWAP1 POP PUSH2 0xAF4 PUSH1 0x0 DUP4 ADD DUP5 PUSH2 0xA35 JUMP JUMPDEST SWAP3 SWAP2 POP POP JUMP JUMPDEST PUSH1 0x0 PUSH1 0x60 DUP3 ADD SWAP1 POP PUSH2 0xB0F PUSH1 0x0 DUP4 ADD DUP7 PUSH2 0xA35 JUMP JUMPDEST PUSH2 0xB1C PUSH1 0x20 DUP4 ADD DUP6 PUSH2 0xA35 JUMP JUMPDEST PUSH2 0xB29 PUSH1 0x40 DUP4 ADD DUP5 PUSH2 0xAD0 JUMP JUMPDEST SWAP5 SWAP4 POP POP POP POP JUMP JUMPDEST PUSH1 0x0 PUSH1 0x20 DUP3 ADD SWAP1 POP DUP2 DUP2 SUB PUSH1 0x0 DUP4 ADD MSTORE PUSH2 0xB4A DUP2 PUSH2 0xA44 JUMP JUMPDEST SWAP1 POP SWAP2 SWAP1 POP JUMP JUMPDEST PUSH1 0x0 PUSH1 0x20 DUP3 ADD SWAP1 POP DUP2 DUP2 SUB PUSH1 0x0 DUP4 ADD MSTORE PUSH2 0xB6A DUP2 PUSH2 0xA67 JUMP JUMPDEST SWAP1 POP SWAP2 SWAP1 POP JUMP JUMPDEST PUSH1 0x0 PUSH1 0x20 DUP3 ADD SWAP1 POP DUP2 DUP2 SUB PUSH1 0x0 DUP4 ADD MSTORE PUSH2 0xB8A DUP2 PUSH2 0xA8A JUMP JUMPDEST SWAP1 POP SWAP2 SWAP1 POP JUMP JUMPDEST PUSH1 0x0 PUSH1 0x20 DUP3 ADD SWAP1 POP DUP2 DUP2 SUB PUSH1 0x0 DUP4 ADD MSTORE PUSH2 0xBAA DUP2 PUSH2 0xAAD JUMP JUMPDEST SWAP1 POP SWAP2 SWAP1 POP JUMP JUMPDEST PUSH1 0x0 PUSH1 0x20 DUP3 ADD SWAP1 POP PUSH2 0xBC6 PUSH1 0x0 DUP4 ADD DUP5 PUSH2 0xAD0 JUMP JUMPDEST SWAP3 SWAP2 POP POP JUMP JUMPDEST PUSH1 0x0 DUP3 DUP3 MSTORE PUSH1 0x20 DUP3 ADD SWAP1 POP SWAP3 SWAP2 POP POP JUMP JUMPDEST PUSH1 0x0 PUSH2 0xBE8 DUP3 PUSH2 0xD30 JUMP JUMPDEST SWAP2 POP PUSH2 0xBF3 DUP4 PUSH2 0xD30 JUMP JUMPDEST SWAP3 POP DUP3 PUSH32 0xFFFFFFFFFFFFFFFFFFFFFFFFFFFFFFFFFFFFFFFFFFFFFFFFFFFFFFFFFFFFFFFF SUB DUP3 GT ISZERO PUSH2 0xC28 JUMPI PUSH2 0xC27 PUSH2 0xD3A JUMP JUMPDEST JUMPDEST DUP3 DUP3 ADD SWAP1 POP SWAP3 SWAP2 POP POP JUMP JUMPDEST PUSH1 0x0 PUSH2 0xC3E DUP3 PUSH2 0xD30 JUMP JUMPDEST SWAP2 POP PUSH2 0xC49 DUP4 PUSH2 0xD30 JUMP JUMPDEST SWAP3 POP DUP3 PUSH2 0xC59 JUMPI PUSH2 0xC58 PUSH2 0xD69 JUMP JUMPDEST JUMPDEST DUP3 DUP3 DIV SWAP1 POP SWAP3 SWAP2 POP POP JUMP JUMPDEST PUSH1 0x0 PUSH2 0xC6F DUP3 PUSH2 0xD30 JUMP JUMPDEST SWAP2 POP PUSH2 0xC7A DUP4 PUSH2 0xD30 JUMP JUMPDEST SWAP3 POP DUP2 PUSH32 0xFFFFFFFFFFFFFFFFFFFFFFFFFFFFFFFFFFFFFFFFFFFFFFFFFFFFFFFFFFFFFFFF DIV DUP4 GT DUP3 ISZERO ISZERO AND ISZERO PUSH2 0xCB3 JUMPI PUSH2 0xCB2 PUSH2 0xD3A JUMP JUMPDEST JUMPDEST DUP3 DUP3 MUL SWAP1 POP SWAP3 SWAP2 POP POP JUMP JUMPDEST PUSH1 0x0 PUSH2 0xCC9 DUP3 PUSH2 0xD30 JUMP JUMPDEST SWAP2 POP PUSH2 0xCD4 DUP4 PUSH2 0xD30 JUMP JUMPDEST SWAP3 POP DUP3 DUP3 LT ISZERO PUSH2 0xCE7 JUMPI PUSH2 0xCE6 PUSH2 0xD3A JUMP JUMPDEST JUMPDEST DUP3 DUP3 SUB SWAP1 POP SWAP3 SWAP2 POP POP JUMP JUMPDEST PUSH1 0x0 PUSH2 0xCFD DUP3 PUSH2 0xD10 JUMP JUMPDEST SWAP1 POP SWAP2 SWAP1 POP JUMP JUMPDEST PUSH1 0x0 DUP2 ISZERO ISZERO SWAP1 POP SWAP2 SWAP1 POP JUMP JUMPDEST PUSH1 0x0 PUSH20 0xFFFFFFFFFFFFFFFFFFFFFFFFFFFFFFFFFFFFFFFF DUP3 AND SWAP1 POP SWAP2 SWAP1 POP JUMP JUMPDEST PUSH1 0x0 DUP2 SWAP1 POP SWAP2 SWAP1 POP JUMP JUMPDEST PUSH32 0x4E487B7100000000000000000000000000000000000000000000000000000000 PUSH1 0x0 MSTORE PUSH1 0x11 PUSH1 0x4 MSTORE PUSH1 0x24 PUSH1 0x0 REVERT JUMPDEST PUSH32 0x4E487B7100000000000000000000000000000000000000000000000000000000 PUSH1 0x0 MSTORE PUSH1 0x12 PUSH1 0x4 MSTORE PUSH1 0x24 PUSH1 0x0 REVERT JUMPDEST PUSH1 0x0 DUP1 REVERT JUMPDEST PUSH32 0x546F74616C207061796F7574732073686F756C6420657175616C20746F74616C PUSH1 0x0 DUP3 ADD MSTORE PUSH32 0x206465706F736974730000000000000000000000000000000000000000000000 PUSH1 0x20 DUP3 ADD MSTORE POP JUMP JUMPDEST PUSH32 0x43616E6E6F74207374616B652030000000000000000000000000000000000000 PUSH1 0x0 DUP3 ADD MSTORE POP JUMP JUMPDEST PUSH32 0x556E737570706F7274656420746F6B656E000000000000000000000000000000 PUSH1 0x0 DUP3 ADD MSTORE POP JUMP JUMPDEST PUSH32 0x43616E6E6F74207061796F7574206D6F7265207468616E206465706F73697473 PUSH1 0x0 DUP3 ADD MSTORE POP JUMP JUMPDEST PUSH2 0xE70 DUP2 PUSH2 0xCF2 JUMP JUMPDEST DUP2 EQ PUSH2 0xE7B JUMPI PUSH1 0x0 DUP1 REVERT JUMPDEST POP JUMP JUMPDEST PUSH2 0xE87 DUP2 PUSH2 0xD04 JUMP JUMPDEST DUP2 EQ PUSH2 0xE92 JUMPI PUSH1 0x0 DUP1 REVERT JUMPDEST POP JUMP JUMPDEST PUSH2 0xE9E DUP2 PUSH2 0xD30 JUMP JUMPDEST DUP2 EQ PUSH2 0xEA9 JUMPI PUSH1 0x0 DUP1 REVERT JUMPDEST POP JUMP INVALID LOG2 PUSH5 0x6970667358 0x22 SLT KECCAK256 LOG2 0xD7 JUMPI SHL PUSH15 0xE7D6326957A1B74A059D50C34D2586 0xBF DUP4 CALLDATASIZE PUSH20 0x2F969F82D6C8C36264736F6C6343000807003300 "
		},
		"gasEstimates": {
			"creation": {
				"codeDepositCost": "762000",
				"executionCost": "113522",
				"totalCost": "875522"
			},
			"external": {
				"USDC()": "2534",
				"deposit()": "2495",
				"duration()": "2475",
				"ft()": "2536",
				"ftPayout()": "2517",
				"initiate(uint256,uint256)": "infinite",
				"liquidate()": "infinite",
				"margin()": "2474",
				"notional()": "2539",
				"penalty()": "2453",
				"rate()": "2452",
				"settle()": "infinite",
				"takeFixedRate(address,uint256)": "infinite",
				"takeVariableRate(address,uint256)": "infinite",
				"threshold()": "2474",
				"vt()": "2603",
				"vtPayout()": "2518"
			},
			"internal": {
				"getCurrentRate()": "infinite",
				"pay(address,uint256)": "infinite",
				"stake(address,uint256)": "infinite"
			}
		},
		"methodIdentifiers": {
			"USDC()": "89a30271",
			"deposit()": "d0e30db0",
			"duration()": "0fb5a6b4",
			"ft()": "bb1631cf",
			"ftPayout()": "f5c8f89a",
			"initiate(uint256,uint256)": "a52b3113",
			"liquidate()": "28a07025",
			"margin()": "8f76691a",
			"notional()": "f855c2b2",
			"penalty()": "0edd2ffc",
			"rate()": "2c4e722e",
			"settle()": "11da60b4",
			"takeFixedRate(address,uint256)": "c34482a6",
			"takeVariableRate(address,uint256)": "5ac7efa9",
			"threshold()": "42cde4e8",
			"vt()": "72be1c17",
			"vtPayout()": "b4d20082"
		}
	},
	"abi": [
		{
			"inputs": [],
			"stateMutability": "nonpayable",
			"type": "constructor"
		},
		{
			"inputs": [],
			"name": "USDC",
			"outputs": [
				{
					"internalType": "address",
					"name": "",
					"type": "address"
				}
			],
			"stateMutability": "view",
			"type": "function"
		},
		{
			"inputs": [],
			"name": "deposit",
			"outputs": [
				{
					"internalType": "uint256",
					"name": "",
					"type": "uint256"
				}
			],
			"stateMutability": "view",
			"type": "function"
		},
		{
			"inputs": [],
			"name": "duration",
			"outputs": [
				{
					"internalType": "uint256",
					"name": "",
					"type": "uint256"
				}
			],
			"stateMutability": "view",
			"type": "function"
		},
		{
			"inputs": [],
			"name": "ft",
			"outputs": [
				{
					"internalType": "address",
					"name": "",
					"type": "address"
				}
			],
			"stateMutability": "view",
			"type": "function"
		},
		{
			"inputs": [],
			"name": "ftPayout",
			"outputs": [
				{
					"internalType": "uint256",
					"name": "",
					"type": "uint256"
				}
			],
			"stateMutability": "view",
			"type": "function"
		},
		{
			"inputs": [
				{
					"internalType": "uint256",
					"name": "n",
					"type": "uint256"
				},
				{
					"internalType": "uint256",
					"name": "d",
					"type": "uint256"
				}
			],
			"name": "initiate",
			"outputs": [],
			"stateMutability": "nonpayable",
			"type": "function"
		},
		{
			"inputs": [],
			"name": "liquidate",
			"outputs": [],
			"stateMutability": "nonpayable",
			"type": "function"
		},
		{
			"inputs": [],
			"name": "margin",
			"outputs": [
				{
					"internalType": "uint256",
					"name": "",
					"type": "uint256"
				}
			],
			"stateMutability": "view",
			"type": "function"
		},
		{
			"inputs": [],
			"name": "notional",
			"outputs": [
				{
					"internalType": "uint256",
					"name": "",
					"type": "uint256"
				}
			],
			"stateMutability": "view",
			"type": "function"
		},
		{
			"inputs": [],
			"name": "penalty",
			"outputs": [
				{
					"internalType": "uint256",
					"name": "",
					"type": "uint256"
				}
			],
			"stateMutability": "view",
			"type": "function"
		},
		{
			"inputs": [],
			"name": "rate",
			"outputs": [
				{
					"internalType": "uint256",
					"name": "",
					"type": "uint256"
				}
			],
			"stateMutability": "view",
			"type": "function"
		},
		{
			"inputs": [],
			"name": "settle",
			"outputs": [],
			"stateMutability": "nonpayable",
			"type": "function"
		},
		{
			"inputs": [
				{
					"internalType": "address",
					"name": "token",
					"type": "address"
				},
				{
					"internalType": "uint256",
					"name": "amount",
					"type": "uint256"
				}
			],
			"name": "takeFixedRate",
			"outputs": [],
			"stateMutability": "nonpayable",
			"type": "function"
		},
		{
			"inputs": [
				{
					"internalType": "address",
					"name": "token",
					"type": "address"
				},
				{
					"internalType": "uint256",
					"name": "amount",
					"type": "uint256"
				}
			],
			"name": "takeVariableRate",
			"outputs": [],
			"stateMutability": "nonpayable",
			"type": "function"
		},
		{
			"inputs": [],
			"name": "threshold",
			"outputs": [
				{
					"internalType": "uint256",
					"name": "",
					"type": "uint256"
				}
			],
			"stateMutability": "view",
			"type": "function"
		},
		{
			"inputs": [],
			"name": "vt",
			"outputs": [
				{
					"internalType": "address",
					"name": "",
					"type": "address"
				}
			],
			"stateMutability": "view",
			"type": "function"
		},
		{
			"inputs": [],
			"name": "vtPayout",
			"outputs": [
				{
					"internalType": "uint256",
					"name": "",
					"type": "uint256"
				}
			],
			"stateMutability": "view",
			"type": "function"
		}
	]
}